:100000000C9446000C9465000C9465000C946500FB
:100010000C9465000C9465000C9465000C946500CC
:100020000C9465000C9465000C9465000C946500BC
:100030000C9465000C9465000C9465000C946500AC
:100040000C9465000C9465000C9465000C9465009C
:100050000C9465000C9465000C9465000C9465008C
:100060000C9465000C9465000C9465000C9465007C
:100070000C9465000C9465000C9465000C9465006C
:100080000C9465000C9465000C94650011241FBE4F
:10009000CFEFD0E4DEBFCDBF11E0A0E0B1E0ECEDEA
:1000A000F2E000E00BBF02C007900D92AE30B10746
:1000B000D9F711E0AEE0B1E001C01D92A031B10767
:1000C000E1F70E9453010C946C010C940000CF9353
:1000D000DF9300D01F92CDB7DEB789837B836A831D
:1000E00089818A3031F48A819B81BC018DE00E9434
:1000F000670080EC90E0FC018081882F90E08072A6
:1001000099270097B1F386EC90E02981FC012083C8
:1001100080E090E00F900F900F90DF91CF910895C5
:10012000CF93DF93CDB7DEB780910E0190910F0191
:100130008230910509F448C08330910530F400976E
:1001400061F08130910581F06FC08330910521F11C
:100150008430910509F450C067C083E090E090932B
:100160000F0180930E0165C080E290E0FC01808168
:10017000882F90E081709927009739F081E090E016
:1001800090930F0180930E0154C083E090E0909310
:100190000F0180930E014DC080E290E0FC01808150
:1001A000882F90E081709927009739F082E090E0E5
:1001B00090930F0180930E013CC083E090E09093F8
:1001C0000F0180930E0135C080E290E0FC01808138
:1001D000882F90E081709927009739F082E090E0B5
:1001E00090930F0180930E0124C084E090E09093DF
:1001F0000F0180930E011DC080E290E0FC01808120
:10020000882F90E081709927009739F081E090E085
:1002100090930F0180930E010CC084E090E09093C6
:100220000F0180930E0105C010920F0110920E0174
:10023000000080910E0190910F018230910511F123
:100240008330910530F4009751F18130910541F0F0
:100250001FC08330910551F08430910569F018C0BA
:1002600085E290E021E0FC0120831AC085E290E065
:1002700021E0FC01208314C085E290E022E0FC0133
:1002800020830EC085E290E022E0FC01208308C0BC
:1002900085E290E021E0FC012083000001C0000025
:1002A000DF91CF910895CF93DF93CDB7DEB781E291
:1002B00090E0FC01108282E290E02FEFFC012083AD
:1002C00084E290E02FEFFC01208385E290E0FC01C6
:0C02D00010820E949000FDCFF894FFCF38
:0E02DC000000000200000000670000000000AB
:00000001FF
