:100000000C9454000C9473000C9473000C947300C3
:100010000C9473000C9473000C9473000C94730094
:100020000C9473000C9473000C9473000C94730084
:100030000C9473000C9473000C9473000C94730074
:100040000C9473000C9473000C9473000C94730064
:100050000C9473000C9473000C9473000C94730054
:100060000C9473000C9473000C9473000C94730044
:100070000C9473000C9473000C9473000C94730034
:100080000C9473000C9473000C947300B800BF00C0
:10009000E5000B012D013B0134017001700170017D
:1000A0007001700169015C0111241FBECFEFD0E423
:1000B000DEBFCDBF11E0A0E0B1E0E2E5F3E000E09B
:1000C0000BBF02C007900D92AE30B107D9F711E017
:1000D000AEE0B1E001C01D92A031B107E1F70E948E
:1000E00074010C94A7010C940000CF93DF9300D00F
:1000F0001F92CDB7DEB789837B836A8389818A307B
:1001000031F48A819B81BC018DE00E94750080ECF6
:1001100090E0FC018081882F90E080729927009701
:10012000B1F386EC90E02981FC01208380E090E02F
:100130000F900F900F90DF91CF910895CF93DF93A1
:10014000CDB7DEB780910E0190910F01CC01A0E0F8
:10015000B0E040E050E026E030E0841B950B28172B
:10016000390708F48FC08A5B9F4FFC010C949E01F5
:1001700081E090E090930F0180930E0188C080E2AF
:1001800090E0FC01808188233CF485E090E090932E
:100190000F0180930E0118C080E290E0FC01808185
:1001A000882F90E084709927009739F082E090E0E2
:1001B00090930F0180930E0107C081E090E090932F
:1001C0000F0180930E0163C062C080E290E0FC01E9
:1001D0008081882339F483E090E090930F0180932D
:1001E0000E0118C080E290E0FC018081882F90E031
:1001F00084709927009739F082E090E090930F0186
:1002000080930E0107C081E090E090930F018093EE
:100210000E013DC03CC080E290E0FC018081823054
:1002200039F484E090E090930F0180930E0114C0A4
:1002300080E290E0FC018081882339F483E090E043
:1002400090930F0180930E0107C081E090E090939E
:100250000F0180930E011BC01AC086E090E09093BE
:100260000F0180930E0113C081E090E090930F0185
:1002700080930E010CC081E090E090930F01809379
:100280000E0105C010920F0110920E010000809126
:100290000E0190910F01CC01A0E0B0E040E050E0F1
:1002A00026E030E0841B950B28173907B8F0835BF4
:1002B0009F4FFC010C949E0185E290E025E230E026
:1002C000F901308121E0332309F020E0FC01208393
:1002D00008C085E290E0FC01108203C0000001C06C
:1002E0000000DF91CF910895CF93DF93CDB7DEB7B4
:1002F00081E290E0FC01108282E290E02FEFFC01AD
:10030000208384E290E02FEFFC01208385E290E0DF
:10031000FC01108287E290E02FEFFC01208388E24D
:1003200090E0FC0110820E949E0088E290E0209103
:100330000E0130910F01FC012083F5CFEE0FFF1F5E
:100340000024001C0BBE0790F691E02D0994F89450
:02035000FFCFDD
:0E035200000000020000000075000000000026
:00000001FF
