:100000000C9446000C9465000C9465000C946500FB
:100010000C9465000C9465000C9465000C946500CC
:100020000C9465000C9465000C9465000C946500BC
:100030000C9465000C9465000C9465000C946500AC
:100040000C9465000C9465000C9465000C9465009C
:100050000C9465000C9465000C9465000C9465008C
:100060000C9465000C9465000C9465000C9465007C
:100070000C9465000C9465000C9465000C9465006C
:100080000C9465000C9465000C94650011241FBE4F
:10009000CFEFD0E4DEBFCDBF11E0A0E0B1E0E6E3FA
:1000A000F2E000E00BBF02C007900D92AE30B10746
:1000B000D9F711E0AEE0B1E001C01D92A031B10767
:1000C000E1F70E94FC000C9419010C940000CF93FE
:1000D000DF9300D01F92CDB7DEB789837B836A831D
:1000E00089818A3031F48A819B81BC018DE00E9434
:1000F000670080EC90E0FC018081882F90E08072A6
:1001000099270097B1F386EC90E02981FC012083C8
:1001100080E090E00F900F900F90DF91CF910895C5
:10012000CF93DF93CDB7DEB780910E0190910F0191
:100130008130910571F08130910520F08230910578
:1001400001F137C081E090E090930F0180930E01A0
:1001500035C080E290E0FC018081882F90E08170C2
:100160009927009739F082E090E090930F018093F7
:100170000E0124C081E090E090930F0180930E0166
:100180001DC080E290E0FC018081882F90E08170AA
:100190009927009739F081E090E090930F018093C8
:1001A0000E010CC082E090E090930F0180930E014D
:1001B00005C010920F0110920E01000080910E01F7
:1001C00090910F018130910539F08130910580F0D7
:1001D0008230910539F00DC085E290E021E0FC010C
:1001E000208307C085E290E021E0FC01208301C06C
:1001F0000000DF91CF910895CF93DF93CDB7DEB7A5
:1002000081E290E0FC01108282E290E02FEFFC019D
:10021000208384E290E02FEFFC01208385E290E0D0
:10022000FC01108210920F0110920E010E949000AA
:06023000FDCFF894FFCFA2
:0E023600000000020000000067000000000051
:00000001FF
