:100000000C9456000C9475000C9475000C947500BB
:100010000C9475000C9475000C9475000C9475008C
:100020000C9475000C9475000C9475000C9475007C
:100030000C9475000C9475000C9475000C9475006C
:100040000C9475000C9475000C9475000C9475005C
:100050000C9475000C9475000C9475000C9475004C
:100060000C9475000C9475000C9475000C9475003C
:100070000C9475000C9475000C9475000C9475002C
:100080000C9475000C9475000C947500BA00C100B6
:1000900021016D01B901C800390185012402F50172
:1000A000FB010C021D0224022402240211241FBEA3
:1000B000CFEFD0E4DEBFCDBF11E0A0E0B1E0E8E9D2
:1000C000F4E000E00BBF02C007900D92AE30B10724
:1000D000D9F711E0AEE0B1E001C01D92A031B10747
:1000E000E1F70E9428020C944A020C940000CF937E
:1000F000DF9300D01F92CDB7DEB789837B836A83FD
:1001000089818A3031F48A819B81BC018DE00E9413
:10011000770080EC90E0FC018081882F90E0807275
:1001200099270097B1F386EC90E02981FC012083A8
:1001300080E090E00F900F900F90DF91CF910895A5
:10014000CF93DF93CDB7DEB780910E0190910F0171
:10015000CC01A0E0B0E040E050E027E030E0841BBC
:10016000950B2817390708F426C18A5B9F4FFC01BD
:100170000C94410281E090E090930F0180930E0176
:100180001FC185E090E090930F0180930E0118C18C
:1001900080E290E0FC018081882F90E081709927B7
:1001A000009789F080E290E0FC018081882F90E048
:1001B00082709927009739F482E090E090930F01C4
:1001C00080930E013DC080E290E0FC018081882F89
:1001D00090E081709927009789F480E290E0FC011B
:1001E0008081882F90E082709927009739F083E012
:1001F00090E090930F0180930E0122C080E290E086
:10020000FC018081882F90E081709927009789F008
:1002100080E290E0FC018081882F90E08270992735
:10022000009739F084E090E090930F0180930E01E5
:1002300007C085E090E090930F0180930E01C0C04D
:10024000BFC080E290E0FC018081882F90E0817047
:100250009927009739F485E090E090930F018093FF
:100260000E01AEC086E090E090930F0180930E01E6
:10027000A7C080E290E0FC018081882F90E081702F
:100280009927009739F485E090E090930F018093CF
:100290000E0122C080E290E0FC018081882F90E076
:1002A00081709927009789F080E290E0FC018081BD
:1002B000882F90E082709927009739F084E090E0D1
:1002C00090930F0180930E0107C086E090E0909319
:1002D0000F0180930E0174C073C080E290E0FC01B6
:1002E0008081882F90E082709927009739F485E00B
:1002F00090E090930F0180930E0162C087E090E040
:1003000090930F0180930E015BC080E290E0FC01AE
:100310008081882F90E082709927009739F485E0DA
:1003200090E090930F0180930E0122C080E290E054
:10033000FC018081882F90E081709927009789F0D7
:1003400080E290E0FC018081882F90E08270992704
:10035000009739F084E090E090930F0180930E01B4
:1003600007C087E090E090930F0180930E0128C0B2
:1003700027C080E290E0FC018081882F90E08170AE
:100380009927009789F080E290E0FC018081882F16
:1003900090E082709927009739F084E090E0909384
:1003A0000F0180930E010CC085E090E090930F0147
:1003B00080930E0105C010920F0110920E010000F3
:1003C00080910E0190910F01CC01A0E0B0E040E0DF
:1003D00050E027E030E0841B950B2817390790F197
:1003E000825B9F4FFC010C94410288E290E027E081
:1003F000FC0120832AC088E290E0FC0180818930E2
:1004000050F488E290E028E230E0F90120812F5F8B
:10041000FC0120831AC019C088E290E0FC018081B1
:10042000882351F088E290E028E230E0F901208151
:100430002150FC01208309C008C088E290E0FC0143
:10044000108203C0000001C00000DF91CF91089529
:10045000CF93DF93CDB7DEB781E290E0FC0110824D
:1004600082E290E02FEFFC01208387E290E02FEF03
:10047000FC01208388E290E0FC0110820E94A00031
:10048000FDCFEE0FFF1F0024001C0BBE0790F6915E
:08049000E02D0994F894FFCF60
:0E0498000000000200000000770000000000DD
:00000001FF
