:100000000C9456000C9475000C9475000C947500BB
:100010000C9475000C9475000C9475000C9475008C
:100020000C9475000C9475000C9475000C9475007C
:100030000C9475000C9475000C9475000C9475006C
:100040000C9475000C9475000C9475000C9475005C
:100050000C9475000C9475000C9475000C9475004C
:100060000C9475000C9475000C9475000C9475003C
:100070000C9475000C9475000C9475000C9475002C
:100080000C9475000C9475000C947500BA00C100B6
:1000900021016D01B901C800390185012502F60170
:1000A000FC010D021E0225022502250211241FBE9D
:1000B000CFEFD0E4DEBFCDBF11E0A0E0B1E0EAE9D0
:1000C000F4E000E00BBF02C007900D92AE30B10724
:1000D000D9F711E0AEE0B1E001C01D92A031B10747
:1000E000E1F70E9429020C944B020C940000CF937C
:1000F000DF9300D01F92CDB7DEB789837B836A83FD
:1001000089818A3031F48A819B81BC018DE00E9413
:10011000770080EC90E0FC018081882F90E0807275
:1001200099270097B1F386EC90E02981FC012083A8
:1001300080E090E00F900F900F90DF91CF910895A5
:10014000CF93DF93CDB7DEB780910E0190910F0171
:10015000CC01A0E0B0E040E050E027E030E0841BBC
:10016000950B2817390708F427C18A5B9F4FFC01BC
:100170000C94420281E090E090930F0180930E0175
:1001800020C185E090E090930F0180930E0119C18A
:1001900080E290E0FC018081882F90E081709927B7
:1001A000009789F080E290E0FC018081882F90E048
:1001B00082709927009739F482E090E090930F01C4
:1001C00080930E013DC080E290E0FC018081882F89
:1001D00090E081709927009789F480E290E0FC011B
:1001E0008081882F90E082709927009739F083E012
:1001F00090E090930F0180930E0122C080E290E086
:10020000FC018081882F90E081709927009789F008
:1002100080E290E0FC018081882F90E08270992735
:10022000009739F084E090E090930F0180930E01E5
:1002300007C085E090E090930F0180930E01C1C04C
:10024000C0C080E290E0FC018081882F90E0817046
:100250009927009739F485E090E090930F018093FF
:100260000E01AFC086E090E090930F0180930E01E5
:10027000A8C080E290E0FC018081882F90E081702E
:100280009927009739F485E090E090930F018093CF
:100290000E0122C080E290E0FC018081882F90E076
:1002A00081709927009789F080E290E0FC018081BD
:1002B000882F90E082709927009739F084E090E0D1
:1002C00090930F0180930E0107C086E090E0909319
:1002D0000F0180930E0175C074C080E290E0FC01B4
:1002E0008081882F90E082709927009739F485E00B
:1002F00090E090930F0180930E0163C087E090E03F
:1003000090930F0180930E015CC080E290E0FC01AD
:100310008081882F90E082709927009739F485E0DA
:1003200090E090930F0180930E0122C080E290E054
:10033000FC018081882F90E082709927009789F0D6
:1003400080E290E0FC018081882F90E08170992705
:10035000009739F084E090E090930F0180930E01B4
:1003600007C087E090E090930F0180930E0129C0B1
:1003700028C080E290E0FC018081882F90E09C0101
:100380002170332780E290E0FC018081882F90E08B
:100390008270992782239323009739F084E090E0BC
:1003A00090930F0180930E010CC085E090E0909334
:1003B0000F0180930E0105C010920F0110920E01E3
:1003C000000080910E0190910F01CC01A0E0B0E0FF
:1003D00040E050E027E030E0841B950B28173907F8
:1003E00090F1825B9F4FFC010C94420288E290E006
:1003F00027E0FC0120832AC088E290E0FC01808194
:10040000893050F488E290E028E230E0F901208160
:100410002F5FFC0120831AC019C088E290E0FC0124
:100420008081882351F088E290E028E230E0F901F1
:1004300020812150FC01208309C008C088E290E09F
:10044000FC01108203C0000001C00000DF91CF91C9
:100450000895CF93DF93CDB7DEB781E290E0FC0142
:10046000108282E290E02FEFFC01208387E290E08F
:100470002FEFFC01208388E290E0FC0110820E94B3
:10048000A000FDCFEE0FFF1F0024001C0BBE079045
:0A049000F691E02D0994F894FFCFD7
:0E049A000000000200000000770000000000DB
:00000001FF
