:100000000C9446000C9465000C9465000C946500FB
:100010000C9465000C9465000C9465000C946500CC
:100020000C9465000C9465000C9465000C946500BC
:100030000C9465000C9465000C9465000C946500AC
:100040000C9465000C9465000C9465000C9465009C
:100050000C9465000C9465000C9465000C9465008C
:100060000C9465000C9465000C9465000C9465007C
:100070000C9465000C9465000C9465000C9465006C
:100080000C9465000C9465000C94650011241FBE4F
:10009000CFEFD0E4DEBFCDBF11E0A0E0B1E0E0E4FF
:1000A000F3E000E00BBF02C007900D92A231B10750
:1000B000D9F711E0A2E1B1E001C01D92A531B1076D
:1000C000E1F70E9474010C949E010C940000CF9300
:1000D000DF9300D01F92CDB7DEB789837B836A831D
:1000E00089818A3031F48A819B81BC018DE00E9434
:1000F000670080EC90E0FC018081882F90E08072A6
:1001000099270097B1F386EC90E02981FC012083C8
:1001100080E090E00F900F900F90DF91CF910895C5
:10012000CF93DF93CDB7DEB7809113019091140187
:100130008230910509F443C08330910530F4009773
:1001400089F081309105A9F099C08430910509F4B6
:1001500087C08430910508F48AC08530910509F480
:100160006CC08CC081E090E09093140180931301E7
:100170008AC080E290E0FC01808188233CF483E027
:1001800090E0909314018093130118C080E290E0F6
:10019000FC018081882F90E084709927009739F0C6
:1001A00082E090E0909314018093130107C081E0F6
:1001B00090E0909314018093130165C064C0809116
:1001C0001201843049F41092120184E090E090937F
:1001D00014018093130130C080E290E0FC01808123
:1001E000882339F482E090E0909314018093130106
:1001F00023C080E290E0FC01208180911201882FD1
:1002000090E0825F9E4FFC018081281761F480910D
:1002100012018F5F8093120185E090E090931401AA
:100220008093130109C081E090E0909314018093C2
:1002300013011092120127C026C080E290E0FC0159
:100240008081882339F482E090E0909314018093B8
:10025000130106C085E090E0909314018093130190
:1002600081E090E090931401809313010CC081E031
:1002700090E0909314018093130105C01092140133
:1002800010921301000080911301909114018230AB
:10029000910511F18330910530F40097F9F0813028
:1002A0009105F1F01EC08330910589F084309105ED
:1002B00009F017C085E290E025E230E0F9013081D5
:1002C00021E0332309F020E0FC0120830AC085E20D
:1002D00090E0FC01108205C0000003C0000001C0D6
:1002E0000000DF91CF910895CF93DF93CDB7DEB7B4
:1002F00081E290E0FC01108282E290E02FEFFC01AD
:10030000208384E290E02FEFFC01208385E290E0DF
:10031000FC01108287E290E02FEFFC01208388E24D
:1003200090E0FC0110820E94900088E290E0209111
:10033000130130911401FC012083F5CFF894FFCF15
:10034000000000020000000067000000000004013F
:020350000201A8
:00000001FF
